:100000000C9475000C9492000C9492000C94920045
:100010000C9492000C9492000C9492000C94920018
:100020000C9492000C9492000C9492000C94920008
:100030000C9492000C9492000C9492000C949200F8
:100040000C9492000C9492000C9492000C949200E8
:100050000C9492000C9492000C9492000C949200D8
:100060000C9492000C94920007634236B79BD8A779
:100070001A39685618AEBAAB558C1D3CB7CC5763CD
:10008000BD6DEDFD753EF6177231BF000000803F7B
:1000900008000000BE922449123EABAAAA2ABECD97
:1000A000CCCC4C3E00000080BEABAAAAAA3E000009
:1000B0000000BF000000803F000000000008417801
:1000C000D3BB4387D1133D190E3CC3BD4282AD2B38
:1000D0003E68EC8276BED98FE1A93E4C80EFFFBE30
:1000E00001C4FF7F3F000000000011241FBECFEFBE
:1000F000D8E0DEBFCDBF11E0A0E0B1E0E6E6FFE171
:1001000002C005900D92A232B107D9F721E0A2E218
:10011000B1E001C01D92A734B207E1F70E94550774
:100120000C94B10F0C940000CF93DF93C82F8EEE88
:100130000E940706811112C08C2F0E942A060E947D
:1001400023078FEE0E940706811108C00E94450612
:10015000C82FD0E00E942307CE0100C0DF91CF91CD
:100160000895CF93DF93C82F8EEE0E94070681116A
:1001700017C08C2F0E942A060E9423078FEE0E9430
:10018000070681110DC00E943B06C82FD0E0DC2F6E
:10019000CC270E944506C82B0E942307CE0100C031
:1001A000DF91CF9108950E94B10098278927982761
:1001B00008950C94B1000C94D300CF92DF92EF928B
:1001C000FF92F82E8EEE0E940706811127C08F2D18
:1001D0000E942A060E9423078FEE0E9407068111C3
:1001E00019C00E943B06C82ED12CE12CF12CFE2C0C
:1001F000ED2CDC2CCC240E943B06C82AFE2CED2CD6
:10020000DC2CCC240E944506C82A0E942307B60194
:10021000C70104C080E091E00E944907FF90EF9081
:10022000DF90CF900895CF93DF9388E80E94D300AA
:1002300090932301809322018AE80E94D300909337
:100240002501809324018CE80E94D300909327011C
:10025000809326018EE80E94D30090932901809319
:10026000280180E90E94D30090932B0180932A01FA
:1002700082E90E94D30090932D0180932C0184E9A0
:100280000E94D30090932F0180932E0186E90E9453
:10029000D300909331018093300188E90E94D3000C
:1002A00090933301809332018AE90E94D3009093A6
:1002B0003501809334018CE90E94D300909337017B
:1002C000809336018EE90E94D30090933901809388
:1002D000380181EA0E94940080933A0181EE0E94E5
:1002E000D30090933C0180933B0183EE0E949400E5
:1002F00080933D0184EE0E949400EC0185EE0E9403
:1003000094008F70992734E0CC0FDD1F3A95E1F708
:100310008C2B9D2B90933F0180933E0186EE0E9493
:100320009400EC0185EE0E94940044E09695879538
:100330004A95E1F754E0CC0FDD1F5A95E1F78C2B7D
:100340009D2B909341018093400187EE0E94940081
:1003500080934201DF91CF9108958EEE0E940706AF
:1003600081111EC082EF0E942A0685E00E942A06A3
:1003700084EF0E942A0687EB0E942A0680ED0E94E5
:100380002A060E9413010E9423078FEE0E9407068F
:10039000811106C00E9445060E9442070C94230763
:1003A00008958F929F92AF92BF92CF92DF92EF9279
:1003B000FF928AEF0E94DD002091220130912301FB
:1003C0006901E12CF12C872E982EA92EBB24A7FCC5
:1003D000BA948C189D08AE08BF089B01AC01F7E0E9
:1003E0005595479537952795FA95D1F7D701C601C9
:1003F000880F991FAA1FBB1F281B390B4A0B5B0BC9
:10040000A0912401B09125010E94B3076B017C01EA
:100410007BE0F594E794D794C7947A95D1F7A5013A
:100420009401C501B4010E9479079B01AC01ECE085
:100430005595479537952795EA95D1F7A0912601CF
:10044000B09127010E94B307FEE0959587957795B7
:100450006795FA95D1F7C60ED71EE81EF91EC09211
:100460004301D0924401E0924501F0924601A5E09B
:10047000B0E0A70196010E94A80760587F4F8F4FF8
:100480009F4F672F782F892F99270E94730A20E0AA
:1004900030E048EC52E40E94D6090E94430AFF90E3
:1004A000EF90DF90CF90BF90AF909F908F90089586
:1004B0002F923F924F925F926F927F928F929F9274
:1004C000AF92BF92CF92DF92EF92FF920F931F9362
:1004D000CF93DF93CDB7DEB7A1970FB6F894DEBF09
:1004E0000FBECDBF0E94D10187EF0E94DD002B011E
:1004F0003C018091430190914401A0914501B0914C
:1005000046014C015D019C01A50160E070E080E0C6
:1005100090E0345F414051096109710981099109F5
:1005200029873A871A014B0189A398A359016A01C7
:100530007B018C010E94BB072D8B3E8B4F8B588F0C
:10054000698F7A8F8B8F9C8FA0903201AD8EB09087
:100550003301BB86C0903001CE8ED0903101DC8655
:10056000E0902E01EF8EF0902F01FD86B0902B01D0
:10057000A0902A011B2D110F110BC12ED12EE12E9F
:10058000F12E012F29853A85A101B40189A198A1F5
:100590000E94BB070CE00E94EB0829833E874F872F
:1005A000588B698B7A8B8B8B9C8BB0902D01A09094
:1005B0002C011B2D110F110BC12ED12EE12EF12E6E
:1005C000012F2D893E894F89588D698D7A8D8B8DAC
:1005D0009C8D0E94BB0708E00E940409A980BE848C
:1005E000CF84D888E988FA880B891C890E9422095F
:1005F00070588F4F9F4FE0912801F09129015F01C2
:10060000C12CD12CE12CF12C8701E983BA82CB8259
:10061000DC82ED82FE820F831887C12CD12CE12C65
:10062000F12C00E010E00E94BB0701E20E940409E7
:1006300029833E874F87588B698B7A8B8B8B9C8B5A
:10064000A0E00E94340909F466C1AD8C1B85110F2E
:10065000110BBB84C12ED12EE12EF12E012F2D893D
:100660003E894F89588D698D7A8D8B8D9C8D0E9426
:10067000BB072B873D8B4E8B5F8B688F798F8A8F63
:100680009B8FAE8C1C85110F110BBC84C12ED12EFB
:10069000E12EF12E012F29853A85A101B40189A10E
:1006A00098A10E94BB0701E10E94EB0859016A0171
:1006B0007B018C012B853D894E895F89688D798D01
:1006C0008A8D9B8D0E942209F9014B875C871B0153
:1006D0004C01B4E07594679457944794BA95D1F758
:1006E00080E090E0A0E1B0E084199509A609B7097F
:1006F0006C017D01FF0CCC08DC2C76019C01AD0166
:100700006C2D7C2D8C2D9C2D0FE10E94EB082E8BE7
:10071000532EB42FA52F462E7D8B782E692E2F8D2C
:100720009D85990F990B3D85492F592F692F792F59
:10073000892F03E20E94EB0859016A017B018C01B9
:100740009F014B855C85B101C4010E9422095901BA
:100750006A017B018C012E89352D4B2F5A2F642D78
:100760007D89872D962D0E942B094901542E652ED7
:10077000B62FA72FF82FE92F03E00E94EB085401B2
:10078000C52CD62CEB2EFA2E0F2F1E2F0E942B09D4
:1007900059016A017B01782E192F03E00E94EB08B2
:1007A000072D0E942B0903E00E94EB085401C52C81
:1007B000D62CEB2EFA2E0F2F1E2F0E942B0902E0B3
:1007C0000E94EB080F2F0E942B0901E00E94EB080A
:1007D0000F2F0E942B09A980BE84CF84D888E98876
:1007E000FA880B891C890E9416082F873E87498743
:1007F0005A8769837B878C879D870DE00E94040957
:10080000922E832E742E652E562E472E382E292E8C
:100810003091390120913801932F990F990BA92C10
:10082000B82CC72CD62CE52CF42C032D122D492FD7
:10083000592F692F792F892F0E94BB070E94BB0770
:1008400009E10E94040959016A017B018C012F858D
:100850003E8549855A8569817B858C859D850E9469
:10086000220919012A013B014C01309137012091E5
:100870003601932F990F990BAF84BE84C984DA8413
:10088000E980FB840C851D85492F592F692F792F0D
:10089000892F0E94BB0703E10E94040959016A01E4
:1008A0007B018C019101A201B301C4010E942209C4
:1008B00008E00E940409522E632E742E852E962E77
:1008C000F72FE82FB92F3091350120913401932F64
:1008D000990F990B492F592F692F792F892F04E0F0
:1008E0000E94EB0859016A017B018C01252D362DF0
:1008F000472D582D692D7F2F8E2F9B2F0E94220967
:100900000E946F0A20E030E040E85BE30E944F0B5A
:100910000E943E0A03C060E070E0CB01A1960FB6D2
:10092000F894DEBF0FBECDBFDF91CF911F910F9125
:10093000FF90EF90DF90CF90BF90AF909F908F90FF
:100940007F906F905F904F903F902F9008954F92BF
:100950005F926F927F928F929F92AF92BF92CF924F
:10096000DF92EF92FF920E94D1018DEF0E94B100C1
:100970008090430190904401A0904501B0904601C1
:100980002CE2921A21E0A20AB1086C01E12CF12CB0
:100990003EE0CC0CDD1CEE1CFF1C3A95D1F780919B
:1009A0003E0190913F01AA2797FDA095BA2F44E1FF
:1009B000880F991FAA1FBB1F4A95D1F7C81AD90AD9
:1009C000EA0AFB0AA0914001B0914101A5019401FE
:1009D0000E94B307C61AD70AE80AF90A30E4D30E10
:1009E000E11CF11C5FE0F594E794D794C7945A9505
:1009F000D1F7A0914201BB27A7FDB095A5019401B5
:100A00000E94B3072B013C016AE0759467945794E8
:100A100047946A95D1F7A0913D01B0E00E94A807E4
:100A2000EBE09595879577956795EA95D1F770589E
:100A30008F4F9F4FA30192010E9479079B01AC0148
:100A4000FAE05595479537952795FA95D1F7405E89
:100A50005F4FA0913B01B0913C010E94B307705ED3
:100A60008F4F9F4FAEE09595879577956795AA959F
:100A7000D1F7A70196010E9479076B017C01BFE0C5
:100A80009595879577956795BA95D1F79B01AC01B8
:100A90000E9479079B01AC0187E0559547953795F2
:100AA00027958A95D1F7A0913A01B0E00E94A80756
:100AB00024E095958795779567952A95D1F7A701B5
:100AC0009601261B370B480B590BDA01C90157FF5A
:100AD00003C080E090E0DC0181309105A10539E19F
:100AE000B30724F080E090E0A0E0B9E1BC01CD01C3
:100AF0002CE095958795779567952A95D1F70E9473
:100B0000750A20E030E040E85AE30E944F0B0E9453
:100B10003E0AFF90EF90DF90CF90BF90AF909F90F4
:100B20008F907F906F905F904F9008958F929F92DB
:100B3000AF92BF92CF92DF92EF92FF920F931F93EB
:100B4000CF93DF93CDB7DEB72A970FB6F894DEBF09
:100B50000FBECDBF4B015C010E9458020E94750A76
:100B600020E030E048EC52E40E94D6096B017C01A1
:100B70000E943E0A7F936F938CE191E09F938F9345
:100B80008E010F5F1F4F1F930F930E94170DC80117
:100B90000E9449078FE191E00E944907A501940155
:100BA000C701B6010E94D60921E03EED42E45EE3B2
:100BB0000E94B20B9B01AC0160E070E080E89FE313
:100BC0000E94710920E03AE24DE257E40E944F0B87
:100BD0000E943E0A0F900F900F900F900F900F9071
:100BE0002A960FB6F894DEBF0FBECDBFDF91CF912E
:100BF0001F910F91FF90EF90DF90CF90BF90AF903B
:100C00009F908F90089580E28093B800089510928D
:100C1000BC0094EA9093BC009091BC0097FFFCCF7D
:100C20009091B900987F983099F48093BB0084E844
:100C30008093BC008091BC0087FFFCCF9091B900ED
:100C4000987F983119F081E0903419F480E008958C
:100C500081E008958093BB0084E88093BC0080917C
:100C6000BC0087FFFCCF9091B900987F81E098325B
:100C700009F480E0089584EC8093BC008091BC006E
:100C800087FFFCCF8091BB00089584E88093BC006F
:100C90008091BC0087FFFCCF8091BB000895EF924C
:100CA000FF920F931F93CF93DF9300D0CDB7DEB7A2
:100CB0008A0169837A830E94070669817A8181119A
:100CC0000DC07B010E0D1F1DE016F10649F0F70166
:100CD00081917F010E942A068823B1F381E004C03C
:100CE00084E98093BC0080E00F900F90DF91CF915A
:100CF0001F910F91FF90EF900895EF92FF920F9345
:100D00001F93CF93DF93EB017A0181600E94070666
:100D100081111AC08E0181E0E81AF108C8018C1B0C
:100D20009D0B8E159F0530F40E943B06F8018193C0
:100D30008F01F4CFCE0DDF1D0E944506888384E924
:100D40008093BC0080E001C081E0DF91CF911F91D2
:100D50000F91FF90EF900895CF92DF92EF92FF9264
:100D60000F931F93CF93DF931F92CDB7DEB77A0116
:100D7000890169830E9407066981882311F081E057
:100D800015C0862F0E942A0667010E0D1F1DC01672
:100D9000D10641F0F60181916F010E942A06882355
:100DA000B1F3EDCF84E98093BC0080E00F90DF9138
:100DB000CF911F910F91FF90EF90DF90CF9008950A
:100DC000CF92DF92EF92FF920F931F93CF93DF9317
:100DD0001F92CDB7DEB7182F6A01790169830E948F
:100DE00007066981882311F081E023C0862F0E94C5
:100DF0002A06812F81600E9407068111F5CF8601A6
:100E000081E0E81AF108C8018C199D098E159F052B
:100E100030F40E943B06F80181938F01F4CFEC0C73
:100E2000FD1C0E944506F701808384E98093BC0085
:100E300080E00F90DF91CF911F910F91FF90EF9085
:100E4000DF90CF90089584E98093BC0008950197C6
:100E50009C0140E050E060E271EA87E090E00E948F
:100E60008907832F99278093C5002093C400E1EC64
:100E7000F0E0808188698083E2ECF0E080818E6020
:100E8000808308959091C00095FFFCCF8093C600A9
:100E90000895CF93DF93EC018991882319F00E9484
:100EA0004207FACFDF91CF91089580E091EE0E9442
:100EB00027070E9403060E94AD01CFEF60E070E5B6
:100EC0008DE794E40E949605C5B92FEF84E39CE07A
:100ED000215080409040E1F700C0000015B82FEF8E
:100EE00089E698E1215080409040E1F700C0000081
:100EF000E5CFDB018F939F930E94A807BF91AF912D
:100F0000A29F800D911DA39F900DB29F900D112463
:100F10000895052E97FB1EF400940E94A00757FD2C
:100F200007D00E94400907FC03D04EF40C94A007A0
:100F300050954095309521953F4F4F4F5F4F089505
:100F400090958095709561957F4F8F4F9F4F089535
:100F50000E946209A59F900DB49F900DA49F800DE3
:100F6000911D11240895B7FF0C94A8070E94A807AB
:100F7000821B930B0895DF93CF931F930F939A9D3A
:100F8000F02D219FF00D8B9DF00D8A9DE02DF10D30
:100F9000039FF00D029FE00DF11D4E9DE00DF11D30
:100FA0005E9DF00D4F9DF00D7F936F93BF92AF92BA
:100FB0005F934F93D5010E9462098B01AC01D70169
:100FC0000E946209EB01E80FF91FD6010E940B088D
:100FD0002F913F91D6010E946209C60FD71FE81FCB
:100FE000F91FAF91BF910E940B082F913F910E9472
:100FF0006209C60FD71FE81FF91FD6010E946209B8
:10100000E60FF71F9801BE01CF0111240F911F9128
:10101000CF91DF9108950E946209460F571FC81FA4
:10102000D91F08F431960895689401C0E894F92F07
:10103000F12B12F00C944808A0E0B0E0E2E2F8E0F6
:101040000C94BA08092E059422F40E94A4081123D6
:1010500092F4F0E80F26FFEFE094F09400951095DD
:10106000B094C094D094A194BF0ACF0ADF0AEF0ACB
:10107000FF0A0F0B1F0B0E94530807FC0E94A408D5
:10108000CDB7DEB7ECE00C94D608689401C0E894C4
:101090008F929F92CF93DF930E945308DF91CF915D
:1010A0009F908F90089588249924F401E401B0E47E
:1010B0009F93AA279A158B049C04ED05FE05CF0586
:1010C000D007A10798F4AD2FDC2FCF2FFE2FE92DED
:1010D000982C892E982F872F762F652F542F432FEA
:1010E000322F2227B85031F7BF9127C01B2EBF9156
:1010F000BB27220F331F441F551F661F771F881FF2
:10110000991F881C991CEE1FFF1FCC1FDD1FAA1FF3
:10111000BB1F8A149B04EC05FD05CE05DF05A00767
:10112000B10748F08A189B08EC09FD09CE09DF09D0
:10113000A00BB10B21601A94E1F62EF49401AF01DB
:10114000BE01CD01000C0895609570958095909535
:1011500030954095509521953F4F4F4F5F4F6F4FC2
:101160007F4F8F4F9F4F08952F923F924F925F92E4
:101170006F927F928F929F92AF92BF92CF92DF92A7
:10118000EF92FF920F931F93CF93DF93CDB7DEB70C
:10119000CA1BDB0B0FB6F894DEBF0FBECDBF0994A0
:1011A0002A88398848885F846E847D848C849B84F7
:1011B000AA84B984C884DF80EE80FD800C811B8105
:1011C000AA81B981CE0FD11D0FB6F894DEBF0FBE34
:1011D000CDBFED0108950F93083090F0982F872F21
:1011E000762F652F542F432F322F22270850F4CF0C
:1011F000220F331F441F551F661F771F881F991F1B
:101200000A95B2F70F91089597FB10F8169400080D
:101210000F93083098F00850232F342F452F562F66
:10122000672F782F892F902DF4CF05949795879568
:101230007795679557954795379527950A95AAF716
:101240000F9108952A0D3B1D4C1D5D1D6E1D7F1DC8
:10125000801F911F08952A193B094C095D096E09E9
:101260007F09800B910B08950024A7FD00942A1795
:10127000300540055005600570058005900508950E
:10128000A1E21A2EAA1BBB1BFD010DC0AA1FBB1F8A
:10129000EE1FFF1FA217B307E407F50720F0A21BFC
:1012A000B30BE40BF50B661F771F881F991F1A9469
:1012B00069F760957095809590959B01AC01BD0193
:1012C000CF010895A29FB001B39FC001A39F700DED
:1012D000811D1124911DB29F700D811D1124911D3E
:1012E00008955058BB27AA270ED09FC190D130F047
:1012F00095D120F031F49F3F11F41EF475C10EF426
:10130000E095E7FB6BC1E92FA1D180F3BA17620723
:1013100073078407950718F071F49EF5B9C10EF4B0
:10132000E0950B2EBA2FA02D0B01B90190010C01F5
:10133000CA01A0011124FF27591B99F0593F50F40D
:10134000503E68F11A16F040A22F232F342F442765
:10135000585FF3CF469537952795A795F04053955D
:10136000C9F77EF41F16BA0B620B730B840BBAF02D
:101370009150A1F0FF0FBB1F661F771F881FC2F798
:101380000EC0BA0F621F731F841F48F487957795AC
:101390006795B795F7959E3F08F0B3CF9395880F63
:1013A00008F09927EE0F9795879508950CD03DC1C9
:1013B00035D140F02CD130F021F45F3F19F00EC14F
:1013C000511167C111C142D198F39923C9F3552333
:1013D000B1F3951B550BBB27AA2762177307840728
:1013E00038F09F5F5F4F220F331F441FAA1FA9F3DE
:1013F00033D00E2E3AF0E0E830D091505040E695D0
:10140000001CCAF729D0FE2F27D0660F771F881F30
:10141000BB1F261737074807AB07B0E809F0BB0B1F
:10142000802DBF01FF2793585F4F2AF09E3F510543
:1014300068F0D4C02EC15F3FECF3983EDCF3869594
:1014400077956795B795F7959F5FC9F7880F911DB9
:101450009695879597F90895E1E0660F771F881FA5
:10146000BB1F621773078407BA0720F0621B730B58
:10147000840BBA0BEE1F88F7E095089504D06894AA
:10148000B11107C10895EAD088F09F5790F0B92FA5
:101490009927B751A0F0D1F0660F771F881F991FC9
:1014A0001AF0BA95C9F712C0B13081F0F1D0B1E0AD
:1014B0000895EEC0672F782F8827B85F39F0B93FBD
:1014C000CCF3869577956795B395D9F73EF49095CB
:1014D0008095709561957F4F8F4F9F4F089597FB33
:1014E0000EF485D03EC0E89409C097FB3EF4909579
:1014F0008095709561957F4F8F4F9F4F9923A9F0ED
:10150000F92F96E9BB279395F6958795779567957B
:10151000B795F111F8CFFAF4BB0F11F460FF1BC0BF
:101520006F5F7F4F8F4F9F4F16C0882311F096E952
:1015300011C0772321F09EE8872F762F05C0662300
:1015400071F096E8862F70E060E02AF09A95660FB9
:10155000771F881FDAF7880F9695879597F9089572
:10156000E894F92F96EBFF2381F012161306140668
:10157000440B9395F69587957795679557954040D9
:10158000FF23B9F71BC099270895882351F4985079
:10159000D2F7872B762F652F542F432F322F20E041
:1015A000B1F3121613061406440B88233AF09A95E9
:1015B000440F551F661F771F881FCAF755234AF42B
:1015C000440F551F11F460FF04C06F5F7F4F8F4FB2
:1015D0009F4F880F9695879597F9089597F99F677C
:1015E00080E870E060E008959FEF80EC08959095AA
:1015F00080957095609550954095309521953F4F19
:101600004F4F5F4F6F4F7F4F8F4F9F4F0895002475
:101610000A941616170618060906089500240A9457
:1016200012161306140605060895092E0394000CDD
:1016300011F4882352F0BB0F40F4BF2B11F460FF6C
:1016400004C06F5F7F4F8F4F9F4F089557FD905895
:10165000440F551F59F05F3F71F04795880F97FB76
:10166000991F61F09F3F79F0879508951216130630
:101670001406551FF2CF4695F1DF08C0161617065F
:101680001806991FF1CF8695710561050894089594
:10169000E894BB2766277727CB0197F908950BD0ED
:1016A000C4CFB5DF28F0BADF18F0952309F096CF44
:1016B0009BCF1124EECFCADFA0F3959FD1F3950FF6
:1016C00050E0551F629FF001729FBB27F00DB11DC6
:1016D000639FAA27F00DB11DAA1F649F6627B00D56
:1016E000A11D661F829F2227B00DA11D621F739F3F
:1016F000B00DA11D621F839FA00D611D221F749F4D
:101700003327A00D611D231F849F600D211D822F93
:10171000762F6A2F11249F5750408AF0E1F08823DA
:101720004AF0EE0FFF1FBB1F661F771F881F9150E7
:101730005040A9F79E3F510570F050CFAACF5F3FB0
:10174000ECF3983EDCF3869577956795B795F7951A
:10175000E7959F5FC1F7FE2B880F911D96958795A2
:1017600097F90895FA01EE0FFF1F30962105310514
:1017700099F16115710561F48038BFE39B0749F168
:1017800068949038810561F08038BFEF9B0741F085
:10179000992342F5FF3FE1053105210511F1E89458
:1017A0000894E795D901AA2329F4AB2FBE2FF85F3F
:1017B000D0F310C0FF5F70F4A695E0F7F73950F052
:1017C00019F0FF3A38F49F779F930CD00F9007FCE5
:1017D000905808953EF008CF60E070E080E89FE305
:1017E00008954FE79F775F934F933F932F939ED03A
:1017F0002F913F914F915F9152DF05C019F40EF088
:10180000EDCE46CFF1CE2ADFC8F39638C0F707F801
:101810000F92E8942BE33AEA48EB5FE74EDF0F9232
:101820000F920F924DB75EB70F92C0D0E8E6F0E08E
:1018300016D04F915F91EF91FF91E595EE1FFF1F3D
:1018400049F0FE57E0684427EE0F441FFA95E1F790
:101850004195550B32D00F9007FE26C00895DF93B7
:10186000CF931F930F93FF92EF92DF927B018C0136
:10187000689405C0DA2EEF011EDFFE01E894A59101
:101880002591359145915591AEF3EF013CDDFE0177
:101890009701A801DA9479F7DF90EF90FF900F910C
:1018A0001F91CF91DF9108959B01AC0160E070E042
:1018B00080E89FE37BCD92CEACC0D0DEE8F39923E5
:1018C000D9F3940F511DBBF39150504094F059F04F
:1018D000882332F0660F771F881F91505040C1F760
:1018E0009E3F510544F7880F911D9695879597F96E
:1018F00008955F3FACF0983E9CF0BB2786957795A6
:101900006795B79508F4B1609395C1F7BB0F58F789
:1019100011F460FFE8CF6F5F7F4F8F4F9F4FE3CF92
:10192000B8CE0EF076C060CE689458CE97DEC8F37D
:101930009923D1F3C6F3DF93CF931F930F93FF92B5
:10194000C92FDD2788232AF02197660F771F881F6C
:10195000DAF720E030E040E85FEB9FE3883920F0E1
:10196000803E30F021968F77BDDCE0E9F0E003C0E7
:10197000B9DCEDEBF0E073DF8B01BE01EC01FB2E77
:101980006F5771097595771F880B990BAEDD28E1AC
:1019900032E741E35FE38FDEAF2D9801AE01FF90A8
:1019A0000F911F91CF91DF91AEDC3FCEFA01DC01A8
:1019B000AA0FBB1F9B01AC01BF5728F42227332776
:1019C000442750781FC0B75188F4AB2F00244695A8
:1019D00037952795011CA395D2F3002069F0220FBB
:1019E000331F441FB395DAF30DD07BCC6130710502
:1019F000A0E88A07B94630F49B01AC016627772737
:101A000088279078309621F0208331834283538356
:101A100008959F3F31F0915020F487957795679511
:101A2000B795880F911D9695879597F90895AEE023
:101A3000B0E0EDE1FDE00C94C2080D891E8986E05E
:101A40008C831A8309838FEF9FE79E838D83AE017A
:101A5000475E5F4F6F89788DCE0101960E94390DE8
:101A6000EF81F885E00FF11F10822E96E4E00C94D0
:101A7000DE08ACE0B0E0EFE3FDE00C94B4087C01DC
:101A80006B018A01FC0117821682838181FFBDC12F
:101A9000CE0101964C01F7019381F60193FD8591EA
:101AA00093FF81916F01882309F4ABC1853239F42A
:101AB00093FD859193FF81916F01853229F4B701E0
:101AC00090E00E94210FE7CF512C312C20E02032F2
:101AD000A0F48B3269F030F4803259F0833269F42B
:101AE00020612CC08D3239F0803339F4216026C05A
:101AF0002260246023C0286021C027FD27C030ED6C
:101B0000380F3A3078F426FF06C0FAE05F9E300DB9
:101B10001124532E13C08AE0389E300D1124332E29
:101B200020620CC08E3221F426FD6BC1206406C0F9
:101B30008C3611F4206802C0883641F4F60193FD1A
:101B4000859193FF81916F018111C1CF982F9F7D66
:101B50009554933028F40C5F1F4FFFE3F9830DC0B9
:101B6000833631F0833771F0833509F05BC022C0D2
:101B7000F801808189830E5F1F4F44244394512CC8
:101B8000540115C03801F2E06F0E711CF801A080FD
:101B9000B18026FF03C0652D70E002C06FEF7FEFBC
:101BA000C5012C870E94160F2C0183012C852F77ED
:101BB000222E17C03801F2E06F0E711CF801A080D0
:101BC000B18026FF03C0652D70E002C06FEF7FEF8C
:101BD000C5012C870E940B0F2C012C852068222E1A
:101BE000830123FC1BC0832D90E048165906B0F4F6
:101BF000B70180E290E00E94210F3A94F4CFF50102
:101C000027FC859127FE81915F01B70190E00E943A
:101C1000210F31103A94F1E04F1A51084114510448
:101C200071F7E5C0843611F0893639F5F80127FFE0
:101C300007C060817181828193810C5F1F4F08C052
:101C400060817181882777FD8095982F0E5F1F4FE7
:101C50002F76B22E97FF09C090958095709561956B
:101C60007F4F8F4F9F4F2068B22E2AE030E0A401B3
:101C70000E94530FA82EA81844C0853729F42F7E40
:101C8000B22E2AE030E025C0F22FF97FBF2E8F362A
:101C9000C1F018F4883579F0B4C0803719F088376E
:101CA00021F0AFC02F2F2061B22EB4FE0DC08B2DBE
:101CB0008460B82E09C024FF0AC09F2F9660B92EF9
:101CC00006C028E030E005C020E130E002C020E19D
:101CD00032E0F801B7FE07C0608171818281938193
:101CE0000C5F1F4F06C06081718180E090E00E5F45
:101CF0001F4FA4010E94530FA82EA818FB2DFF7799
:101D0000BF2EB6FE0BC02B2D2E7FA51450F4B4FEB3
:101D10000AC0B2FC08C02B2D2E7E05C07A2C2B2DBC
:101D200003C07A2C01C0752C24FF0DC0FE01EA0D02
:101D3000F11D8081803311F4297E09C022FF06C085
:101D40007394739404C0822F867809F0739423FDF2
:101D500013C020FF06C05A2C731418F4530C5718E4
:101D6000732C731468F4B70180E290E02C870E9412
:101D7000210F73942C85F5CF731410F4371801C01C
:101D8000312C24FF12C0B70180E390E02C870E9421
:101D9000210F2C8522FF17C021FF03C088E590E0AA
:101DA00002C088E790E0B7010CC0822F867859F016
:101DB00021FD02C080E201C08BE227FD8DE2B70168
:101DC00090E00E94210FA51438F4B70180E390E061
:101DD0000E94210F5A94F7CFAA94F401EA0DF11D45
:101DE0008081B70190E00E94210FA110F5CF332030
:101DF00009F451CEB70180E290E00E94210F3A949D
:101E0000F6CFF7018681978102C08FEF9FEF2C9666
:101E1000E2E10C94D008FC01059061507040011083
:101E2000D8F7809590958E0F9F1F0895FC01615003
:101E3000704001900110D8F7809590958E0F9F1FEC
:101E400008950F931F93CF93DF93182F092FEB0162
:101E50008B8181FD03C08FEF9FEF20C082FF10C0F8
:101E60004E815F812C813D81421753077CF4E881CC
:101E7000F9819F012F5F3F4F39832883108306C06C
:101E8000E885F985812F0995892B29F72E813F81D6
:101E90002F5F3F4F3F832E83812F902FDF91CF9174
:101EA0001F910F910895FA01AA27283051F120318E
:101EB00081F1E8946F936E7F6E5F7F4F8F4F9F4FDE
:101EC000AF4FB1E03ED0B4E03CD0670F781F891F20
:101ED0009A1FA11D680F791F8A1F911DA11D6A0FEE
:101EE000711D811D911DA11D20D009F468943F91A1
:101EF0002AE0269F11243019305D3193DEF6CF01A0
:101F00000895462F4770405D4193B3E00FD0C9F765
:101F1000F6CF462F4F70405D4A3318F0495D31FDD2
:101F20004052419302D0A9F7EACFB4E0A695979525
:101F3000879577956795BA95C9F7009761057105FB
:101F400008959B01AC010A2E069457954795379545
:101F50002795BA95C9F7620F731F841F951FA01D9F
:061F60000895F894FFCF84
:101F6600436F756C64206E6F7420636F6E6E65636D
:101F76007420746F2073656E736F72002025642061
:021F8600000059
:00000001FF
