:100000000C9434000C9451000C9451000C94510049
:100010000C9451000C9451000C9451000C9451001C
:100020000C9451000C9451000C9451000C9451000C
:100030000C9451000C9451000C9451000C945100FC
:100040000C9451000C9451000C9451000C945100EC
:100050000C9451000C9451000C9451000C945100DC
:100060000C9451000C94510011241FBECFEFD8E026
:10007000DEBFCDBF11E0A0E0B1E0E6EDFAE002C0E6
:1000800005900D92AC31B107D9F721E0ACE1B1E0B8
:1000900001C01D92A134B207E1F70E9469030C94DC
:1000A00069050C940000CF93DF93C82F8EEE0E9459
:1000B0001B02811112C08C2F0E943E020E94370346
:1000C0008FEE0E941B02811108C00E945902C82FA6
:1000D000D0E00E943703CE0100C0DF91CF91089598
:1000E000CF93DF93C82F8EEE0E941B02811117C0A1
:1000F0008C2F0E943E020E9437038FEE0E941B024B
:1001000081110DC00E944F02C82FD0E0DC2FCC27F8
:100110000E945902C82B0E943703CE0100C0DF9114
:10012000CF9108950E9470009827892798270895F5
:100130000C9470000C949200CF92DF92EF92FF9299
:10014000F82E8EEE0E941B02811127C08F2D0E9477
:100150003E020E9437038FEE0E941B02811119C0DC
:100160000E944F02C82ED12CE12CF12CFE2CED2C3C
:10017000DC2CCC240E944F02C82AFE2CED2CDC2C57
:10018000CC240E945902C82A0E943703B601C70135
:1001900004C080E091E00E945D03FF90EF90DF904B
:1001A000CF900895CF93DF9388E80E9492009093B8
:1001B0001D0180931C018AE80E94920090931F0108
:1001C00080931E018CE80E949200909321018093FD
:1001D00020018EE80E9492009093230180932201D7
:1001E00080E90E949200909325018093240182E986
:1001F0000E949200909327018093260184E90E9437
:100200009200909329018093280186E90E94920030
:1002100090932B0180932A0188E90E949200909389
:100220002D0180932C018AE90E94920090932F0166
:1002300080932E018CE90E9492009093310180936B
:1002400030018EE90E949200909333018093320135
:1002500081EA0E9453008093340181EE0E94920053
:10026000909336018093350183EE0E945300809372
:10027000370184EE0E945300EC0185EE0E9453008A
:100280008F70992734E0CC0FDD1F3A95E1F78C2B66
:100290009D2B909339018093380186EE0E94530084
:1002A000EC0185EE0E94530044E0969587954A95AF
:1002B000E1F754E0CC0FDD1F5A95E1F78C2B9D2B15
:1002C00090933B0180933A0187EE0E945300809304
:1002D0003C01DF91CF9108958EEE0E941B028111A7
:1002E0001EC082EF0E943E0285E00E943E0284EF23
:1002F0000E943E0287EB0E943E0280ED0E943E0279
:100300000E94D2000E9437038FEE0E941B028111CF
:1003100006C00E9459020E9456030C9437030895A8
:100320008F929F92AF92BF92CF92DF92EF92FF9205
:100330008AEF0E949C0020911C0130911D016901EF
:10034000E12CF12C872E982EA92EBB24A7FCBA9461
:100350008C189D08AE08BF089B01AC01F7E05595CD
:10036000479537952795FA95D1F7D701C601880F9C
:10037000991FAA1FBB1F281B390B4A0B5B0BA091AF
:100380001E01B0911F010E94D9036B017C017BE02B
:10039000F594E794D794C7947A95D1F7A501940181
:1003A000C501B4010E949F039B01AC01ECE055958F
:1003B000479537952795EA95D1F7A0912001B091FF
:1003C00021010E94D903FEE0959587957795679561
:1003D000FA95D1F7C60ED71EE81EF91EC0923D0150
:1003E000D0923E01E0923F01F0924001A5E0B0E0E2
:1003F000A70196010E94CE0360587F4F8F4F9F4FF9
:10040000672F782F892F99270E94A60420E030E0DB
:1004100048EC52E40E9412040E947A04FF90EF908C
:10042000DF90CF90BF90AF909F908F90089580E223
:100430008093B80008951092BC0094EA9093BC0099
:100440009091BC0097FFFCCF9091B900987F9830B5
:1004500099F48093BB0084E88093BC008091BC0039
:1004600087FFFCCF9091B900987F983119F081E017
:10047000903419F480E0089581E008958093BB00E2
:1004800084E88093BC008091BC0087FFFCCF9091F2
:10049000B900987F81E0983209F480E0089584ECF7
:1004A0008093BC008091BC0087FFFCCF8091BB0093
:1004B000089584E88093BC008091BC0087FFFCCF46
:1004C0008091BB000895EF92FF920F931F93CF93FB
:1004D000DF9300D0CDB7DEB78A0169837A830E94AB
:1004E0001B0269817A8181110DC07B010E0D1F1DD8
:1004F000E016F10649F0F70181917F010E943E026A
:100500008823B1F381E004C084E98093BC0080E0DB
:100510000F900F90DF91CF911F910F91FF90EF906F
:100520000895EF92FF920F931F93CF93DF93EB0108
:100530007A0181600E941B0281111AC08E0181E044
:10054000E81AF108C8018C1B9D0B8E159F0530F42D
:100550000E944F02F80181938F01F4CFCE0DDF1D71
:100560000E945902888384E98093BC0080E001C026
:1005700081E0DF91CF911F910F91FF90EF9008954F
:10058000CF92DF92EF92FF920F931F93CF93DF935F
:100590001F92CDB7DEB77A01890169830E941B02E1
:1005A0006981882311F081E015C0862F0E943E02E8
:1005B00067010E0D1F1DC016D10641F0F601819195
:1005C0006F010E943E028823B1F3EDCF84E980934E
:1005D000BC0080E00F90DF91CF911F910F91FF90B1
:1005E000EF90DF90CF900895CF92DF92EF92FF923D
:1005F0000F931F93CF93DF931F92CDB7DEB7182FC2
:100600006A01790169830E941B026981882311F0C4
:1006100081E023C0862F0E943E02812F81600E94CC
:100620001B028111F5CF860181E0E81AF108C801AB
:100630008C199D098E159F0530F40E944F02F80118
:1006400081938F01F4CFEC0CFD1C0E945902F7013D
:10065000808384E98093BC0080E00F90DF91CF918C
:100660001F910F91FF90EF90DF90CF90089584E954
:100670008093BC00089501979C0140E050E060E247
:1006800071EA87E090E00E94AF03832F992780935F
:10069000C5002093C400E1ECF0E08081886980838C
:1006A000E2ECF0E080818E60808308959091C0003C
:1006B00095FFFCCF8093C6000895CF93DF93EC01A4
:1006C0008991882319F00E945603FACFDF91CF91C8
:1006D0000895CF93DF93CDB7DEB72A970FB6F8947E
:1006E000DEBF0FBECDBF80E091EE0E943B030E94B3
:1006F00017020E946C011FEF0E949001DC01CB01E8
:100700004AE0BE016F5F7F4F0E943405CE01019623
:100710000E945D0315B92FEF84E39CE021508040D7
:100720009040E1F700C0000015B82FEF89E698E18E
:10073000215080409040E1F700C00000DDCFDB0198
:100740008F939F930E94CE03BF91AF91A29F800D84
:10075000911DA39F900DB29F900D11240895052E19
:1007600097FB1EF400940E94C60357FD07D00E9419
:10077000E10307FC03D04EF40C94C603509540955A
:10078000309521953F4F4F4F5F4F0895909580953D
:10079000709561957F4F8F4F9F4F08950E9403047E
:1007A000A59F900DB49F900DA49F800D911D1124C5
:1007B0000895B7FF0C94CE030E94CE03821B930BC7
:1007C0000895A1E21A2EAA1BBB1BFD010DC0AA1F92
:1007D000BB1FEE1FFF1FA217B307E407F50720F0AA
:1007E000A21BB30BE40BF50B661F771F881F991F25
:1007F0001A9469F760957095809590959B01AC016E
:10080000BD01CF010895A29FB001B39FC001A39F76
:10081000700D811D1124911DB29F700D811D112439
:10082000911D08950CD0E6C0DED040F0D5D030F058
:1008300021F45F3F19F0C7C0511110C1CAC0EBD0FD
:1008400098F39923C9F35523B1F3951B550BBB2797
:10085000AA2762177307840738F09F5F5F4F220F44
:10086000331F441FAA1FA9F333D00E2E3AF0E0E83D
:1008700030D091505040E695001CCAF729D0FE2F89
:1008800027D0660F771F881FBB1F2617370748071B
:10089000AB07B0E809F0BB0B802DBF01FF279358D1
:1008A0005F4F2AF09E3F510568F08DC0D7C05F3F73
:1008B000ECF3983EDCF3869577956795B795F795B9
:1008C0009F5FC9F7880F911D9695879597F90895B1
:1008D000E1E0660F771F881FBB1F6217730784074D
:1008E000BA0720F0621B730B840BBA0BEE1F88F75C
:1008F000E095089598D088F09F5790F0B92F9927E8
:10090000B751A0F0D1F0660F771F881F991F1AF01A
:10091000BA95C9F712C0B13081F09FD0B1E0089507
:100920009CC0672F782F8827B85F39F0B93FCCF388
:10093000869577956795B395D9F73EF49095809510
:10094000709561957F4F8F4F9F4F0895E89409C030
:1009500097FB3EF490958095709561957F4F8F4FF2
:100960009F4F9923A9F0F92F96E9BB279395F69508
:10097000879577956795B795F111F8CFFAF4BB0F86
:1009800011F460FF1BC06F5F7F4F8F4F9F4F16C0EA
:10099000882311F096E911C0772321F09EE8872F74
:1009A000762F05C0662371F096E8862F70E060E030
:1009B0002AF09A95660F771F881FDAF7880F9695A9
:1009C000879597F9089597F99F6780E870E060E050
:1009D00008959FEF80EC089500240A9416161706D8
:1009E00018060906089500240A9412161306140620
:1009F00005060895092E0394000C11F4882352F083
:100A0000BB0F40F4BF2B11F460FF04C06F5F7F4F3A
:100A10008F4F9F4F089557FD9058440F551F59F021
:100A20005F3F71F04795880F97FB991F61F09F3FDB
:100A300079F087950895121613061406551FF2CF04
:100A40004695F1DF08C0161617061806991FF1CF54
:100A500086957105610508940895E894BB2766277B
:100A60007727CB0197F90895BB274A3031F49923B2
:100A700022F4BDE2909581959F4F0C944005BB27D1
:100A8000FB015527AA27880F991FAA1FA41710F04A
:100A9000A41B83955051B9F7A05DAA3308F0A95D56
:100AA000A193009779F7B111B1931192CB010C94F6
:100AB0005905DC01FC01672F71917723E1F732972B
:100AC00004C07C916D9370836291AE17BF07C8F329
:060AD0000895F894FFCF29
:100AD600436F756C64206E6F7420636F6E6E656312
:0C0AE6007420746F2073656E736F7200D3
:00000001FF
