:100000000C9475000C9492000C9492000C94920045
:100010000C9492000C9492000C9492000C94920018
:100020000C9492000C9492000C9492000C94920008
:100030000C9492000C9492000C9492000C949200F8
:100040000C9492000C9492000C9492000C949200E8
:100050000C9492000C9492000C9492000C949200D8
:100060000C9492000C94920007634236B79BD8A779
:100070001A39685618AEBAAB558C1D3CB7CC5763CD
:10008000BD6DEDFD753EF6177231BF000000803F7B
:1000900008000000BE922449123EABAAAA2ABECD97
:1000A000CCCC4C3E00000080BEABAAAAAA3E000009
:1000B0000000BF000000803F000000000008417801
:1000C000D3BB4387D1133D190E3CC3BD4282AD2B38
:1000D0003E68EC8276BED98FE1A93E4C80EFFFBE30
:1000E00001C4FF7F3F000000000011241FBECFEFBE
:1000F000D8E0DEBFCDBF11E0A0E0B1E0E6EFFAE16D
:1001000002C005900D92A837B107D9F721E0A8E702
:10011000B1E001C01D92AD39B207E1F70E941607A8
:100120000C94790D0C940000CF93DF93C82F8EEEC2
:100130000E94C805811112C08C2F0E94EB050E94FD
:10014000E4068FEE0E94C805811108C00E940606D1
:10015000C82FD0E00E94E406CE0100C0DF91CF910D
:100160000895CF93DF93C82F8EEE0E94C8058111AA
:1001700017C08C2F0E94EB050E94E4068FEE0E94B0
:10018000C80581110DC00E94FC05C82FD0E0DC2FEE
:10019000CC270E940606C82B0E94E406CE0100C0B0
:1001A000DF91CF9108950E94B10098278927982761
:1001B00008950C94B1000C94D300CF92DF92EF928B
:1001C000FF92F82E8EEE0E94C805811127C08F2D58
:1001D0000E94EB050E94E4068FEE0E94C805811183
:1001E00019C00E94FC05C82ED12CE12CF12CFE2C4C
:1001F000ED2CDC2CCC240E94FC05C82AFE2CED2C16
:10020000DC2CCC240E940606C82A0E94E406B60113
:10021000C70104C08CE591E00E940A07FF90EF90AF
:10022000DF90CF900895CF93DF9388E80E94D300AA
:1002300090937901809378018AE80E94D30090938B
:100240007B0180937A018CE80E94D30090937D011A
:1002500080937C018EE80E94D30090937F0180936D
:100260007E0180E90E94D3009093810180938001F8
:1002700082E90E94D300909383018093820184E9F4
:100280000E94D300909385018093840186E90E94A7
:10029000D300909387018093860188E90E94D30060
:1002A00090938901809388018AE90E94D3009093FA
:1002B0008B0180938A018CE90E94D30090938D0179
:1002C00080938C018EE90E94D30090938F018093DC
:1002D0008E0181EA0E9494008093900181EE0E9439
:1002E000D300909392018093910183EE0E94940039
:1002F0008093930184EE0E949400EC0185EE0E94AD
:1003000094008F70992734E0CC0FDD1F3A95E1F708
:100310008C2B9D2B909395018093940186EE0E94E7
:100320009400EC0185EE0E94940044E09695879538
:100330004A95E1F754E0CC0FDD1F5A95E1F78C2B7D
:100340009D2B909397018093960187EE0E949400D5
:1003500080939801DF91CF9108958EEE0E94C80599
:1003600081111EC082EF0E94EB0585E00E94EB0523
:1003700084EF0E94EB0587EB0E94EB0580ED0E9465
:10038000EB050E9413010E94E4068FEE0E94C8054F
:10039000811106C00E9406060E9403070C94E40621
:1003A00008958F929F92AF92BF92CF92DF92EF9279
:1003B000FF928AEF0E94DD0020917801309179014F
:1003C0006901E12CF12C872E982EA92EBB24A7FCC5
:1003D000BA948C189D08AE08BF089B01AC01F7E0E9
:1003E0005595479537952795FA95D1F7D701C601C9
:1003F000880F991FAA1FBB1F281B390B4A0B5B0BC9
:10040000A0917A01B0917B010E94E0076B017C0111
:100410007BE0F594E794D794C7947A95D1F7A5013A
:100420009401C501B4010E94A6079B01AC01ECE058
:100430005595479537952795EA95D1F7A0917C0179
:10044000B0917D010E94E007FEE095958795779534
:100450006795FA95D1F7C60ED71EE81EF91EC09211
:100460009901D0929A01E0929B01F0929C01A5E043
:10047000B0E0A70196010E94D50760587F4F8F4FCB
:100480009F4F672F782F892F99270E94A00A20E07D
:1004900030E048EC52E40E94030AFF90EF90DF90B6
:1004A000CF90BF90AF909F908F9008952F923F92E2
:1004B0004F925F926F927F928F929F92AF92BF9274
:1004C000CF92DF92EF92FF920F931F93CF93DF9320
:1004D000CDB7DEB7A1970FB6F894DEBF0FBECDBF84
:1004E0000E94D10187EF0E94DD002B013C01809129
:1004F000990190919A01A0919B01B0919C014C01AE
:100500005D019C01A50160E070E080E090E0345F57
:1005100041405109610971098109910929873A8787
:100520001A014B0189A398A359016A017B018C012F
:100530000E94E8072C8B3D8B4E8B5F8B688F798FE9
:100540008A8F9C8FA0908801AD8EB0908901BB8668
:10055000C0908601CE8ED0908701DC86E090840129
:10056000EF8EF0908501FB8EB0908101A09080010C
:100570001B2D110F110BC12ED12EE12EF12E012FAB
:1005800029853A85A101B40189A198A10E94E807B3
:100590000CE00E94180929833D874E875F87688B8E
:1005A000798B8A8B9B8BB0908301A09082011B2D4D
:1005B000110F110BC12ED12EE12EF12E012F2C89FE
:1005C0003D894E895F89688D798D8A8D9C8D0E94C9
:1005D000E80708E00E943109A980BD84CE84DF8449
:1005E000E888F9880A891B890E944F0970588F4F43
:1005F0009F4FE0917E01F0917F015F01C12CD12CD2
:10060000E12CF12C8701E983BA82CB82DC82ED8276
:10061000FE820F831887C12CD12CE12CF12C00E035
:1006200010E00E94E80701E20E94310929833D871A
:100630004E875F87688B798B8A8B9B8BA0E00E94AB
:10064000610909F4EBC0AD8C1B85110F110BBB8444
:10065000C12ED12EE12EF12E012F2C893D894E89FC
:100660005F89688D798D8A8D9C8D0E94E8072B8724
:100670003C8B4D8B5E8B6F8B788F898F9A8FAE8C76
:100680001C85110F110BBC84C12ED12EE12EF12E31
:10069000012F29853A85A101B40189A198A10E9461
:1006A000E80701E10E94180959016A017B018C01E8
:1006B0002B853C894D895E896F89788D898D9A8DCE
:1006C0000E944F09F9014B875C871B014C01B4E084
:1006D0007594679457944794BA95D1F780E090E069
:1006E000A0E1B0E084199509A609B7096C017D0164
:1006F000FF0CCC08DC2C76019C01AD016C2D7C2D0F
:100700008C2D9C2D0FE10E9418092D8B532EB42F98
:10071000A52F462E7C8B782E692E2F8D9B8D990FC1
:10072000990B3B8D492F592F692F792F892F03E280
:100730000E94180959016A017B018C019F014B85B8
:100740005C85B101C4010E944F0959016A017B0116
:100750008C012D89352D4B2F5A2F642D7C89872DA7
:10076000962D0E9458094901542E652EB62FA72FA9
:10077000F82FE92F03E00E9418095401C52CD62C4C
:10078000EB2EFA2E0F2F1E2F0E94580959016A01D5
:100790007B01782E192F03E00E941809072D0E9473
:1007A000580903E00E9418095401C52CD62CEB2EE1
:1007B000FA2E0F2F1E2F0E94580902E00E941809DE
:1007C0000F2F0E94580901E00E9418090F2F0E9464
:1007D000580970908D0190908C01872C880C8808A6
:1007E000A980BD84CE84DF84E888F9880A891B89C2
:1007F0000E94430859016A017B018C01292D372D84
:10080000482D582D682D782D882D982D0E94E807A9
:1008100003E10E9431090E949C0A03C060E070E07D
:10082000CB01A1960FB6F894DEBF0FBECDBFDF910E
:10083000CF911F910F91FF90EF90DF90CF90BF90DD
:10084000AF909F908F907F906F905F904F903F9070
:100850002F9008954F925F926F927F928F929F9206
:10086000AF92BF92CF92DF92EF92FF920E94D1019E
:100870008DEF0E94B1008090990190909A01A09014
:100880009B01B0909C012CE2921A21E0A20AB108CF
:100890006C01E12CF12C3EE0CC0CDD1CEE1CFF1CAD
:1008A0003A95D1F78091940190919501AA2797FDEF
:1008B000A095BA2F44E1880F991FAA1FBB1F4A9524
:1008C000D1F7C81AD90AEA0AFB0AA0919601B09199
:1008D0009701A50194010E94E007C61AD70AE80A09
:1008E000F90A30E4D30EE11CF11C5FE0F594E794C3
:1008F000D794C7945A95D1F7A0919801BB27A7FD2B
:10090000B095A50194010E94E0072B013C016AE02B
:1009100075946794579447946A95D1F7A091930181
:10092000B0E00E94D507EBE09595879577956795A0
:10093000EA95D1F770588F4F9F4FA30192010E9403
:10094000A6079B01AC01FAE0559547953795279589
:10095000FA95D1F7405E5F4FA0919101B09192015D
:100960000E94E007705E8F4F9F4FAEE09595879590
:1009700077956795AA95D1F7A70196010E94A607DA
:100980006B017C01BFE09595879577956795BA9542
:10099000D1F79B01AC010E94A6079B01AC0187E047
:1009A00055954795379527958A95D1F7A091900150
:1009B000B0E00E94D50724E09595879577956795D7
:1009C0002A95D1F7A7019601261B370B480B590B27
:1009D000DA01C90157FF03C080E090E0DC018130FB
:1009E0009105A10539E1B30724F080E090E0A0E093
:1009F000B9E1BC01CD012CE0959587957795679578
:100A00002A95D1F70E94A20A20E030E040E85AE39C
:100A10000E947C0BFF90EF90DF90CF90BF90AF9043
:100A20009F908F907F906F905F904F900895CF929E
:100A3000DF92EF92FF926B017C010E94560220E050
:100A400030E048EC52E40E94030AA70196010E949C
:100A5000030A21E03EED42E45EE30E94DF0B9B01CE
:100A6000AC0160E070E080E89FE30E949E0920E016
:100A70003AE24DE257E40E947C0BFF90EF90DF904A
:100A8000CF9008954F925F926F927F928F929F9234
:100A9000AF92BF92CF92DF92EF92FF920F931F938C
:100AA000CF93DF93CDB7DEB7A4970FB6F894DEBF30
:100AB0000FBECDBF4C016A017B01590184E2E0E029
:100AC000F1E0DE01119601900D928A95E1F7CB01DC
:100AD000BA010E946B0A2B013C014AE0B401C20139
:100AE0000E94440DC401FC01019620812111FBCF1D
:100AF0008EE281938F01C301B2010E94A20A9B0181
:100B0000AC01C701B6010E949E096B017C01F50191
:100B1000EE0FFF1FEE0FFF1F81E090E08C0F9D1F77
:100B2000E80FF91F60817181828193810E94A20A7E
:100B30009B01AC01C701B6010E947C0B0E946B0AAD
:100B40009B0177FF04C022273327261B370B4AE07F
:100B5000B801C9010E94440DC401A4960FB6F894CF
:100B6000DEBF0FBECDBFDF91CF911F910F91FF90E0
:100B7000EF90DF90CF90BF90AF909F908F907F903D
:100B80006F905F904F90089580E28093B800089531
:100B90001092BC0094EA9093BC009091BC0097FF27
:100BA000FCCF9091B900987F983099F48093BB0066
:100BB00084E88093BC008091BC0087FFFCCF9091BB
:100BC000B900987F983119F081E0903419F480E0F1
:100BD000089581E008958093BB0084E88093BC0071
:100BE0008091BC0087FFFCCF9091B900987F81E095
:100BF000983209F480E0089584EC8093BC008091E1
:100C0000BC0087FFFCCF8091BB00089584E88093EF
:100C1000BC008091BC0087FFFCCF8091BB00089591
:100C2000EF92FF920F931F93CF93DF9300D0CDB736
:100C3000DEB78A0169837A830E94C80569817A8157
:100C400081110DC07B010E0D1F1DE016F10649F04C
:100C5000F70181917F010E94EB058823B1F381E0C8
:100C600004C084E98093BC0080E00F900F90DF9176
:100C7000CF911F910F91FF90EF900895EF92FF9207
:100C80000F931F93CF93DF93EB017A0181600E9452
:100C9000C80581111AC08E0181E0E81AF108C80167
:100CA0008C1B9D0B8E159F0530F40E94FC05F801EE
:100CB00081938F01F4CFCE0DDF1D0E94060688833D
:100CC00084E98093BC0080E001C081E0DF91CF9196
:100CD0001F910F91FF90EF900895CF92DF92EF92C6
:100CE000FF920F931F93CF93DF931F92CDB7DEB781
:100CF0007A01890169830E94C8056981882311F0FE
:100D000081E015C0862F0E94EB0567010E0D1F1DA7
:100D1000C016D10641F0F60181916F010E94EB05EA
:100D20008823B1F3EDCF84E98093BC0080E00F907D
:100D3000DF91CF911F910F91FF90EF90DF90CF90B7
:100D40000895CF92DF92EF92FF920F931F93CF936C
:100D5000DF931F92CDB7DEB7182F6A01790169833F
:100D60000E94C8056981882311F081E023C0862F85
:100D70000E94EB05812F81600E94C8058111F5CF8B
:100D8000860181E0E81AF108C8018C199D098E15C9
:100D90009F0530F40E94FC05F80181938F01F4CF88
:100DA000EC0CFD1C0E940606F701808384E9809309
:100DB000BC0080E00F90DF91CF911F910F91FF90C9
:100DC000EF90DF90CF90089584E98093BC00089560
:100DD00001979C0140E050E060E271EA87E090E01A
:100DE0000E94B607832F99278093C5002093C400E3
:100DF000E1ECF0E0808188698083E2ECF0E08081C2
:100E00008E60808308959091C00095FFFCCF809301
:100E1000C6000895CF93DF93EC018991882319F0E0
:100E20000E940307FACFDF91CF910895CF93DF930C
:100E3000CDB7DEB72E970FB6F894DEBF0FBECDBF8D
:100E400080E091EE0E94E8060E94C4050E94AD0178
:100E50001FEF0E94D1016B877C878D879E870E9440
:100E600056022B013C010E942A044B015C0160E008
:100E700070E58DE794E40E9417056B017C0184E224
:100E800091E00E940A0722E030E04B855C856D8589
:100E90007E85CE0101960E944205CE0101960E94F8
:100EA0000A0782E391E00E940A0785E391E00E942D
:100EB0000A0722E030E0B301A201CE0101960E94B0
:100EC0004205CE0101960E940A078CE491E00E943F
:100ED0000A0780E491E00E940A0722E030E0B501B1
:100EE000A401CE0101960E944205CE0101960E9406
:100EF0000A078BE491E00E940A078EE491E00E94C9
:100F00000A0722E030E0B701A601CE0101960E9457
:100F10004205CE0101960E940A0789E591E00E94F0
:100F20000A0715B92FEF84E39CE0215080409040E0
:100F3000E1F700C0000015B82FEF89E698E12150D5
:100F400080409040E1F700C0000083CFDB018F9329
:100F50009F930E94D507BF91AF91A29F800D911DD5
:100F6000A39F900DB29F900D11240895052E97FB1D
:100F70001EF400940E94CD0757FD07D00E946D0912
:100F800007FC03D04EF40C94CD0750954095309556
:100F900021953F4F4F4F5F4F0895909580957095E5
:100FA00061957F4F8F4F9F4F08950E948F09A59F96
:100FB000900DB49F900DA49F800D911D1124089554
:100FC000B7FF0C94D5070E94D507821B930B089599
:100FD000DF93CF931F930F939A9DF02D219FF00DD8
:100FE0008B9DF00D8A9DE02DF10D039FF00D029F6A
:100FF000E00DF11D4E9DE00DF11D5E9DF00D4F9D2C
:10100000F00D7F936F93BF92AF925F934F93D50193
:101010000E948F098B01AC01D7010E948F09EB015F
:10102000E80FF91FD6010E9438082F913F91D60191
:101030000E948F09C60FD71FE81FF91FAF91BF91FC
:101040000E9438082F913F910E948F09C60FD71F29
:10105000E81FF91FD6010E948F09E60FF71F9801BC
:10106000BE01CF0111240F911F91CF91DF910895FF
:101070000E948F09460F571FC81FD91F08F43196C9
:101080000895689401C0E894F92FF12B12F00C94A4
:101090007508A0E0B0E0EFE4F8E00C94E708092E52
:1010A000059422F40E94D108112392F4F0E80F264F
:1010B000FFEFE094F09400951095B094C094D09414
:1010C000A194BF0ACF0ADF0AEF0AFF0A0F0B1F0B1A
:1010D0000E94800807FC0E94D108CDB7DEB7ECE083
:1010E0000C940309689401C0E8948F929F92CF9367
:1010F000DF930E948008DF91CF919F908F90089599
:1011000088249924F401E401B0E49F93AA279A1556
:101110008B049C04ED05FE05CF05D007A10798F4CC
:10112000AD2FDC2FCF2FFE2FE92D982C892E982F55
:10113000872F762F652F542F432F322F2227B85019
:1011400031F7BF9127C01B2EBF91BB27220F331F42
:10115000441F551F661F771F881F991F881C991CE5
:10116000EE1FFF1FCC1FDD1FAA1FBB1F8A149B048D
:10117000EC05FD05CE05DF05A007B10748F08A188C
:101180009B08EC09FD09CE09DF09A00BB10B21601A
:101190001A94E1F62EF49401AF01BE01CD01000CCA
:1011A00008956095709580959095309540955095EF
:1011B00021953F4F4F4F5F4F6F4F7F4F8F4F9F4F47
:1011C00008952F923F924F925F926F927F928F92EB
:1011D0009F92AF92BF92CF92DF92EF92FF920F93C6
:1011E0001F93CF93DF93CDB7DEB7CA1BDB0B0FB6D0
:1011F000F894DEBF0FBECDBF09942A88398848888D
:101200005F846E847D848C849B84AA84B984C88422
:10121000DF80EE80FD800C811B81AA81B981CE0F19
:10122000D11D0FB6F894DEBF0FBECDBFED010895FE
:101230000F93083090F0982F872F762F652F542F1B
:10124000432F322F22270850F4CF220F331F441F81
:10125000551F661F771F881F991F0A95B2F70F91B8
:10126000089597FB10F8169400080F93083098F033
:101270000850232F342F452F562F672F782F892F73
:10128000902DF4CF05949795879577956795579509
:101290004795379527950A95AAF70F9108952A0D36
:1012A0003B1D4C1D5D1D6E1D7F1D801F911F0895F0
:1012B0002A193B094C095D096E097F09800B910BC6
:1012C00008950024A7FD00942A1730054005500515
:1012D00060057005800590050895A1E21A2EAA1BED
:1012E000BB1BFD010DC0AA1FBB1FEE1FFF1FA217D6
:1012F000B307E407F50720F0A21BB30BE40BF50BD3
:10130000661F771F881F991F1A9469F7609570955B
:10131000809590959B01AC01BD01CF010895A29FDE
:10132000B001B39FC001A39F700D811D1124911DB9
:10133000B29F700D811D1124911D08955058BB2737
:10134000AA270ED09FC190D130F095D120F031F472
:101350009F3F11F41EF475C10EF4E095E7FB6BC1DD
:10136000E92FA1D180F3BA176207730784079507A5
:1013700018F071F49EF5B9C10EF4E0950B2EBA2F5A
:10138000A02D0B01B90190010C01CA01A00111248B
:10139000FF27591B99F0593F50F4503E68F11A1637
:1013A000F040A22F232F342F4427585FF3CF4695C8
:1013B00037952795A795F0405395C9F77EF41F16EA
:1013C000BA0B620B730B840BBAF09150A1F0FF0FB4
:1013D000BB1F661F771F881FC2F70EC0BA0F621FA0
:1013E000731F841F48F4879577956795B795F79590
:1013F0009E3F08F0B3CF9395880F08F09927EE0F22
:101400009795879508950CD03DC135D140F02CD1EA
:1014100030F021F45F3F19F00EC1511167C111C1C5
:1014200042D198F39923C9F35523B1F3951B550B7A
:10143000BB27AA2762177307840738F09F5F5F4FA7
:10144000220F331F441FAA1FA9F333D00E2E3AF0E8
:10145000E0E830D091505040E695001CCAF729D002
:10146000FE2F27D0660F771F881FBB1F2617370751
:101470004807AB07B0E809F0BB0B802DBF01FF2781
:1014800093585F4F2AF09E3F510568F0D4C02EC19B
:101490005F3FECF3983EDCF3869577956795B795BB
:1014A000F7959F5FC9F7880F911D9695879597F9D6
:1014B0000895E1E0660F771F881FBB1F621773074F
:1014C0008407BA0720F0621B730B840BBA0BEE1F64
:1014D00088F7E095089504D06894B11107C1089584
:1014E000EAD088F09F5790F0B92F9927B751A0F014
:1014F000D1F0660F771F881F991F1AF0BA95C9F7A8
:1015000012C0B13081F0F1D0B1E00895EEC0672F84
:10151000782F8827B85F39F0B93FCCF38695779557
:101520006795B395D9F73EF4909580957095619540
:101530007F4F8F4F9F4F089597FB0EF485D03EC08D
:10154000E89409C097FB3EF490958095709561955D
:101550007F4F8F4F9F4F9923A9F0F92F96E9BB2713
:101560009395F695879577956795B795F111F8CF8F
:10157000FAF4BB0F11F460FF1BC06F5F7F4F8F4FFA
:101580009F4F16C0882311F096E911C0772321F0F0
:101590009EE8872F762F05C0662371F096E8862F88
:1015A00070E060E02AF09A95660F771F881FDAF7DF
:1015B000880F9695879597F90895E894F92F96EBFB
:1015C000FF2381F0121613061406440B9395F6952B
:1015D00087957795679557954040FF23B9F71BC0CE
:1015E00099270895882351F49850D2F7872B762FA6
:1015F000652F542F432F322F20E0B1F3121613061C
:101600001406440B88233AF09A95440F551F661F21
:10161000771F881FCAF755234AF4440F551F11F44A
:1016200060FF04C06F5F7F4F8F4F9F4F880F96956D
:10163000879597F9089597F99F6780E870E060E0D3
:1016400008959FEF80EC0895909580957095609532
:1016500050954095309521953F4F4F4F5F4F6F4FBD
:101660007F4F8F4F9F4F089500240A941616170638
:1016700018060906089500240A9412161306140683
:1016800005060895092E0394000C11F4882352F0E6
:10169000BB0F40F4BF2B11F460FF04C06F5F7F4F9E
:1016A0008F4F9F4F089557FD9058440F551F59F085
:1016B0005F3F71F04795880F97FB991F61F09F3F3F
:1016C00079F087950895121613061406551FF2CF68
:1016D0004695F1DF08C0161617061806991FF1CFB8
:1016E00086957105610508940895E894BB276627DF
:1016F0007727CB0197F908950BD0C4CFB5DF28F039
:10170000BADF18F0952309F096CF9BCF1124EECFC6
:10171000CADFA0F3959FD1F3950F50E0551F629F4C
:10172000F001729FBB27F00DB11D639FAA27F00D3A
:10173000B11DAA1F649F6627B00DA11D661F829F61
:101740002227B00DA11D621F739FB00DA11D621F46
:10175000839FA00D611D221F749F3327A00D611D63
:10176000231F849F600D211D822F762F6A2F112445
:101770009F5750408AF0E1F088234AF0EE0FFF1F98
:10178000BB1F661F771F881F91505040A9F79E3FCF
:10179000510570F050CFAACF5F3FECF3983EDCF3D9
:1017A000869577956795B795F795E7959F5FC1F70C
:1017B000FE2B880F911D9695879597F90895FA014C
:1017C000EE0FFF1F30962105310599F16115710566
:1017D00061F48038BFE39B0749F168949038810534
:1017E00061F08038BFEF9B0741F0992342F5FF3F3E
:1017F000E1053105210511F1E8940894E795D90137
:10180000AA2329F4AB2FBE2FF85FD0F310C0FF5FDF
:1018100070F4A695E0F7F73950F019F0FF3A38F474
:101820009F779F930CD00F9007FC905808953EF03F
:1018300008CF60E070E080E89FE308954FE79F776E
:101840005F934F933F932F939ED02F913F914F9152
:101850005F9152DF05C019F40EF0EDCE46CFF1CE08
:101860002ADFC8F39638C0F707F80F92E8942BE305
:101870003AEA48EB5FE74EDF0F920F920F924DB7B7
:101880005EB70F92C0D0E8E6F0E016D04F915F91BE
:10189000EF91FF91E595EE1FFF1F49F0FE57E068BD
:1018A0004427EE0F441FFA95E1F74195550B32D0CE
:1018B0000F9007FE26C00895DF93CF931F930F93D9
:1018C000FF92EF92DF927B018C01689405C0DA2EC3
:1018D000EF011EDFFE01E894A59125913591459118
:1018E0005591AEF3EF013CDDFE019701A801DA94BA
:1018F00079F7DF90EF90FF900F911F91CF91DF91DB
:1019000008959B01AC0160E070E080E89FE37BCD2F
:1019100092CEACC0D0DEE8F39923D9F3940F511DD9
:10192000BBF39150504094F059F0882332F0660F89
:10193000771F881F91505040C1F79E3F510544F7D3
:10194000880F911D9695879597F908955F3FACF0A4
:10195000983E9CF0BB27869577956795B79508F4D8
:10196000B1609395C1F7BB0F58F711F460FFE8CF52
:101970006F5F7F4F8F4F9F4FE3CFB8CE0EF076C093
:1019800060CE689458CE97DEC8F39923D1F3C6F39E
:10199000DF93CF931F930F93FF92C92FDD278823E7
:1019A0002AF02197660F771F881FDAF720E030E0D2
:1019B00040E85FEB9FE3883920F0803E30F02196CD
:1019C0008F77BDDCE0E9F0E003C0B9DCEDEBF0E0DF
:1019D00073DF8B01BE01EC01FB2E6F57710975950A
:1019E000771F880B990BAEDD28E132E741E35FE317
:1019F0008FDEAF2D9801AE01FF900F911F91CF9117
:101A0000DF91AEDC3FCEFA01DC01AA0FBB1F9B01C8
:101A1000AC01BF5728F422273327442750781FC032
:101A2000B75188F4AB2F0024469537952795011CB4
:101A3000A395D2F3002069F0220F331F441FB39502
:101A4000DAF30DD07BCC61307105A0E88A07B94686
:101A500030F49B01AC016627772788279078309671
:101A600021F0208331834283538308959F3F31F0D7
:101A7000915020F4879577956795B795880F911DBC
:101A80009695879597F90895BB274A3031F49923A5
:101A900022F4BDE2909581959F4F0C94500DBB2789
:101AA000FB015527AA27880F991FAA1FA41710F01A
:101AB000A41B83955051B9F7A05DAA3308F0A95D26
:101AC000A193009779F7B111B1931192CB010C94C6
:101AD000690DDC01FC01672F71917723E1F73297E3
:101AE00004C07C916D9370836291AE17BF07C8F3F9
:061AF0000895F894FFCFF9
:101AF600000000000A00000064000000E803000087
:101B060010270000A086010040420F008096980032
:101B160000E1F50554656D70657261747572653A1C
:101B2600200043200050726573737572653A200079
:101B360048756D69646974793A2000252000416C06
:101B46007469747564653A20000A0D00436F756CFC
:101B560064206E6F7420636F6E6E65637420746F9D
:081B66002073656E736F7200BD
:00000001FF
